{
  "abi": [
    {
      "inputs": [
        {
          "internalType": "uint256",
          "name": "",
          "type": "uint256"
        }
      ],
      "name": "board",
      "outputs": [
        {
          "internalType": "uint256",
          "name": "",
          "type": "uint256"
        }
      ],
      "stateMutability": "view",
      "type": "function"
    },
    {
      "inputs": [],
      "name": "currentTurn",
      "outputs": [
        {
          "internalType": "uint256",
          "name": "",
          "type": "uint256"
        }
      ],
      "stateMutability": "view",
      "type": "function"
    },
    {
      "inputs": [],
      "name": "getBoard",
      "outputs": [
        {
          "internalType": "uint256[9]",
          "name": "",
          "type": "uint256[9]"
        }
      ],
      "stateMutability": "view",
      "type": "function"
    },
    {
      "inputs": [
        {
          "internalType": "uint256",
          "name": "space",
          "type": "uint256"
        },
        {
          "internalType": "uint256",
          "name": "symbol",
          "type": "uint256"
        }
      ],
      "name": "markSpace",
      "outputs": [],
      "stateMutability": "nonpayable",
      "type": "function"
    },
    {
      "inputs": [],
      "name": "winner",
      "outputs": [
        {
          "internalType": "uint256",
          "name": "",
          "type": "uint256"
        }
      ],
      "stateMutability": "view",
      "type": "function"
    }
  ],
  "bytecode": {
    "object": "0x608060405234801561001057600080fd5b50610692806100206000396000f3fe608060405234801561001057600080fd5b50600436106100575760003560e01c806328ed6e3f1461005c5780633264a34b14610082578063b43a64db14610097578063deb61286146100ac578063dfbf53ae146100b4575b600080fd5b61006f61006a36600461054f565b6100bc565b6040519081526020015b60405180910390f35b61008a6100d3565b6040516100799190610568565b6100aa6100a536600461059a565b61010f565b005b61006f610214565b61006f610238565b600081600981106100cc57600080fd5b0154905081565b6100db610530565b604080516101208101918290529060009060099082845b8154815260200190600101908083116100f2575050505050905090565b61011881610320565b61015a5760405162461bcd60e51b815260206004820152600e60248201526d125b9d985b1a59081cde5b589bdb60921b60448201526064015b60405180910390fd5b61016381610337565b61019f5760405162461bcd60e51b815260206004820152600d60248201526c2737ba103cb7bab9103a3ab93760991b6044820152606401610151565b6101a882610349565b6101e55760405162461bcd60e51b815260206004820152600e60248201526d105b1c9958591e481b585c9ad95960921b6044820152606401610151565b80600083600981106101f9576101f96105bc565b01556009805490600061020b836105e8565b91905055505050565b600060026009546102259190610603565b156102305750600290565b60015b905090565b6000806040518061010001604052806102516000610368565b81526020016102606001610368565b815260200161026f6002610368565b815260200161027e6000610425565b815260200161028d6001610425565b815260200161029c6002610425565b81526020016102a96104cf565b81526020016102b66104f2565b9052905060005b60088110156103175760006102e78383600881106102dd576102dd6105bc565b6020020151610504565b905060018114806102f85750600281145b15610304579392505050565b508061030f816105e8565b9150506102bd565b50600091505090565b600060018214806103315750600282145b92915050565b6000610341610214565b909114919050565b6000806000836009811061035f5761035f6105bc565b01541492915050565b6000600382106103a85760405162461bcd60e51b815260206004820152600b60248201526a496e76616c696420726f7760a81b6044820152606401610151565b60006103b5836003610625565b905060006103c4826002610644565b600981106103d4576103d46105bc565b015460006103e3836001610644565b600981106103f3576103f36105bc565b015460008360098110610408576104086105bc565b01546104149190610625565b61041e9190610625565b9392505050565b6000600382106104685760405162461bcd60e51b815260206004820152600e60248201526d24b73b30b634b21031b7b63ab6b760911b6044820152606401610151565b6000610475836006610644565b60098110610485576104856105bc565b01546000610494846003610644565b600981106104a4576104a46105bc565b0154600084600981106104b9576104b96105bc565b01546104c59190610625565b6103319190610625565b6008546004546000919082805b01546104e89190610625565b6102339190610625565b600654600454600091908260026104dc565b6000816001141561051757506001919050565b816008141561052857506002919050565b506000919050565b6040518061012001604052806009906020820280368337509192915050565b60006020828403121561056157600080fd5b5035919050565b6101208101818360005b6009811015610591578151835260209283019290910190600101610572565b50505092915050565b600080604083850312156105ad57600080fd5b50508035926020909101359150565b634e487b7160e01b600052603260045260246000fd5b634e487b7160e01b600052601160045260246000fd5b60006000198214156105fc576105fc6105d2565b5060010190565b60008261062057634e487b7160e01b600052601260045260246000fd5b500690565b600081600019048311821515161561063f5761063f6105d2565b500290565b60008219821115610657576106576105d2565b50019056fea26469706673582212205962ec0b9b07d0ab060a1d27d5a49473f09288584944318fdc7bf553acb1f0c264736f6c634300080a0033",
    "linkReferences": {}
  },
  "methodIdentifiers": {
    "board(uint256)": "28ed6e3f",
    "currentTurn()": "deb61286",
    "getBoard()": "3264a34b",
    "markSpace(uint256,uint256)": "b43a64db",
    "winner()": "dfbf53ae"
  },
  "id": 2
}