{
  "abi": [
    {
      "inputs": [
        {
          "internalType": "uint256",
          "name": "n",
          "type": "uint256"
        }
      ],
      "name": "fizzbuzz",
      "outputs": [
        {
          "internalType": "string",
          "name": "",
          "type": "string"
        }
      ],
      "stateMutability": "pure",
      "type": "function"
    }
  ],
  "bytecode": {
    "object": "0x608060405234801561001057600080fd5b50610385806100206000396000f3fe608060405234801561001057600080fd5b506004361061002b5760003560e01c806306c3c51914610030575b600080fd5b61004361003e366004610217565b610059565b6040516100509190610230565b60405180910390f35b606061006660038361029b565b15801561007b575061007960058361029b565b155b156100a45750506040805180820190915260088152673334bd3d313abd3d60c11b602082015290565b6100af60058361029b565b6100d3575050604080518082019091526004815263313abd3d60e11b602082015290565b6100de60038361029b565b6101025750506040805180820190915260048152633334bd3d60e11b602082015290565b61010b82610111565b92915050565b6060816101355750506040805180820190915260018152600360fc1b602082015290565b8160005b811561015f5780610149816102c5565b91506101589050600a836102e0565b9150610139565b60008167ffffffffffffffff81111561017a5761017a6102f4565b6040519080825280601f01601f1916602001820160405280156101a4576020820181803683370190505b5090505b841561020f576101b960018361030a565b91506101c6600a8661029b565b6101d1906030610321565b60f81b8183815181106101e6576101e6610339565b60200101906001600160f81b031916908160001a905350610208600a866102e0565b94506101a8565b949350505050565b60006020828403121561022957600080fd5b5035919050565b600060208083528351808285015260005b8181101561025d57858101830151858201604001528201610241565b8181111561026f576000604083870101525b50601f01601f1916929092016040019392505050565b634e487b7160e01b600052601260045260246000fd5b6000826102aa576102aa610285565b500690565b634e487b7160e01b600052601160045260246000fd5b60006000198214156102d9576102d96102af565b5060010190565b6000826102ef576102ef610285565b500490565b634e487b7160e01b600052604160045260246000fd5b60008282101561031c5761031c6102af565b500390565b60008219821115610334576103346102af565b500190565b634e487b7160e01b600052603260045260246000fdfea2646970667358221220ce15c41c2c8b2187c018e2ca1dc38e403b1d92b2b39d9fd519dcb58c5f998ee264736f6c634300080a0033",
    "linkReferences": {}
  },
  "methodIdentifiers": {
    "fizzbuzz(uint256)": "06c3c519"
  },
  "id": 2
}