{
  "abi": [
    {
      "inputs": [
        {
          "internalType": "string",
          "name": "_greeting",
          "type": "string"
        }
      ],
      "stateMutability": "nonpayable",
      "type": "constructor"
    },
    {
      "anonymous": false,
      "inputs": [
        {
          "indexed": true,
          "internalType": "address",
          "name": "previousOwner",
          "type": "address"
        },
        {
          "indexed": true,
          "internalType": "address",
          "name": "newOwner",
          "type": "address"
        }
      ],
      "name": "OwnershipTransferred",
      "type": "event"
    },
    {
      "inputs": [],
      "name": "greet",
      "outputs": [
        {
          "internalType": "string",
          "name": "",
          "type": "string"
        }
      ],
      "stateMutability": "view",
      "type": "function"
    },
    {
      "inputs": [
        {
          "internalType": "string",
          "name": "name",
          "type": "string"
        }
      ],
      "name": "greet",
      "outputs": [
        {
          "internalType": "string",
          "name": "",
          "type": "string"
        }
      ],
      "stateMutability": "view",
      "type": "function"
    },
    {
      "inputs": [],
      "name": "greeting",
      "outputs": [
        {
          "internalType": "string",
          "name": "",
          "type": "string"
        }
      ],
      "stateMutability": "view",
      "type": "function"
    },
    {
      "inputs": [],
      "name": "owner",
      "outputs": [
        {
          "internalType": "address",
          "name": "",
          "type": "address"
        }
      ],
      "stateMutability": "view",
      "type": "function"
    },
    {
      "inputs": [],
      "name": "renounceOwnership",
      "outputs": [],
      "stateMutability": "nonpayable",
      "type": "function"
    },
    {
      "inputs": [
        {
          "internalType": "string",
          "name": "_greeting",
          "type": "string"
        }
      ],
      "name": "setGreeting",
      "outputs": [],
      "stateMutability": "nonpayable",
      "type": "function"
    },
    {
      "inputs": [
        {
          "internalType": "address",
          "name": "newOwner",
          "type": "address"
        }
      ],
      "name": "transferOwnership",
      "outputs": [],
      "stateMutability": "nonpayable",
      "type": "function"
    }
  ],
  "bytecode": {
    "object": "0x608060405234801561001057600080fd5b5060405161094c38038061094c83398101604081905261002f91610151565b61003833610052565b805161004b9060019060208401906100a2565b505061025b565b600080546001600160a01b038381166001600160a01b0319831681178455604051919092169283917f8be0079c531659141344cd1fd0a4f28419497f9722a3daafe3b4186f6b6457e09190a35050565b8280546100ae90610220565b90600052602060002090601f0160209004810192826100d05760008555610116565b82601f106100e957805160ff1916838001178555610116565b82800160010185558215610116579182015b828111156101165782518255916020019190600101906100fb565b50610122929150610126565b5090565b5b808211156101225760008155600101610127565b634e487b7160e01b600052604160045260246000fd5b6000602080838503121561016457600080fd5b82516001600160401b038082111561017b57600080fd5b818501915085601f83011261018f57600080fd5b8151818111156101a1576101a161013b565b604051601f8201601f19908116603f011681019083821181831017156101c9576101c961013b565b8160405282815288868487010111156101e157600080fd5b600093505b8284101561020357848401860151818501870152928501926101e6565b828411156102145760008684830101525b98975050505050505050565b600181811c9082168061023457607f821691505b6020821081141561025557634e487b7160e01b600052602260045260246000fd5b50919050565b6106e28061026a6000396000f3fe608060405234801561001057600080fd5b506004361061007d5760003560e01c8063cfae32171161005b578063cfae3217146100bf578063ead710c4146100d4578063ef690cc0146100e7578063f2fde38b146100ef57600080fd5b8063715018a6146100825780638da5cb5b1461008c578063a4136862146100ac575b600080fd5b61008a610102565b005b6000546040516001600160a01b0390911681526020015b60405180910390f35b61008a6100ba366004610414565b610141565b6100c7610182565b6040516100a391906104f5565b6100c76100e2366004610414565b6101af565b6100c76101c0565b61008a6100fd366004610528565b61024e565b6000546001600160a01b031633146101355760405162461bcd60e51b815260040161012c90610558565b60405180910390fd5b61013f60006102e9565b565b6000546001600160a01b0316331461016b5760405162461bcd60e51b815260040161012c90610558565b805161017e906001906020840190610365565b5050565b60606101aa604051806040016040528060058152602001641ddbdc9b1960da1b815250610339565b905090565b60606101ba82610339565b92915050565b600180546101cd9061058d565b80601f01602080910402602001604051908101604052809291908181526020018280546101f99061058d565b80156102465780601f1061021b57610100808354040283529160200191610246565b820191906000526020600020905b81548152906001019060200180831161022957829003601f168201915b505050505081565b6000546001600160a01b031633146102785760405162461bcd60e51b815260040161012c90610558565b6001600160a01b0381166102dd5760405162461bcd60e51b815260206004820152602660248201527f4f776e61626c653a206e6577206f776e657220697320746865207a65726f206160448201526564647265737360d01b606482015260840161012c565b6102e6816102e9565b50565b600080546001600160a01b038381166001600160a01b0319831681178455604051919092169283917f8be0079c531659141344cd1fd0a4f28419497f9722a3daafe3b4186f6b6457e09190a35050565b606060018260405160200161034f9291906105e4565b6040516020818303038152906040529050919050565b8280546103719061058d565b90600052602060002090601f01602090048101928261039357600085556103d9565b82601f106103ac57805160ff19168380011785556103d9565b828001600101855582156103d9579182015b828111156103d95782518255916020019190600101906103be565b506103e59291506103e9565b5090565b5b808211156103e557600081556001016103ea565b634e487b7160e01b600052604160045260246000fd5b60006020828403121561042657600080fd5b813567ffffffffffffffff8082111561043e57600080fd5b818401915084601f83011261045257600080fd5b813581811115610464576104646103fe565b604051601f8201601f19908116603f0116810190838211818310171561048c5761048c6103fe565b816040528281528760208487010111156104a557600080fd5b826020860160208301376000928101602001929092525095945050505050565b60005b838110156104e05781810151838201526020016104c8565b838111156104ef576000848401525b50505050565b60208152600082518060208401526105148160408501602087016104c5565b601f01601f19169190910160400192915050565b60006020828403121561053a57600080fd5b81356001600160a01b038116811461055157600080fd5b9392505050565b6020808252818101527f4f776e61626c653a2063616c6c6572206973206e6f7420746865206f776e6572604082015260600190565b600181811c908216806105a157607f821691505b602082108114156105c257634e487b7160e01b600052602260045260246000fd5b50919050565b600081516105da8185602086016104c5565b9290920192915050565b600080845481600182811c91508083168061060057607f831692505b602080841082141561062057634e487b7160e01b86526022600452602486fd5b818015610634576001811461064557610672565b60ff19861689528489019650610672565b60008b81526020902060005b8681101561066a5781548b820152908501908301610651565b505084890196505b5050505050506106a36106966106908361016160f51b815260020190565b866105c8565b602160f81b815260010190565b9594505050505056fea26469706673582212206f6e8339c996814a7e1deb90c68b0dd024ba6ebf0b9b52e8485214407fd2c86d64736f6c634300080a0033",
    "linkReferences": {}
  },
  "methodIdentifiers": {
    "greet()": "cfae3217",
    "greet(string)": "ead710c4",
    "greeting()": "ef690cc0",
    "owner()": "8da5cb5b",
    "renounceOwnership()": "715018a6",
    "setGreeting(string)": "a4136862",
    "transferOwnership(address)": "f2fde38b"
  },
  "id": 5
}